:100000000C942A000C9447000C9447000C94470071
:100010000C9447000C9447000C9447000C94470044
:100020000C9447000C9447000C9447000C94470034
:100030000C9447000C9449000C9447000C94470022
:100040000C9447000C9447000C9447000C94470014
:100050000C94470011241FBECFE5D8E0DEBFCDBF12
:1000600010E0A0E6B0E0E6E8F8E002C005900D92EE
:10007000AE37B107D9F710E0AEE7B0E001C01D928E
:10008000A53AB107E1F70E9474000C9441040C9466
:1000900000001F920F920FB60F9211242F933F93DF
:1000A0004F935F936F937F938F939F93AF93BF9380
:1000B000EF93FF9385E890E00E94BE03882319F038
:1000C00081E080937E00FF91EF91BF91AF919F916E
:1000D0008F917F916F915F914F913F912F910F90F1
:1000E0000FBE0F901F901895AF92BF92CF92DF92E4
:1000F000EF92FF920F931F93F8948EEF87BB88B314
:100100008C6088BBC49884B3836484BB81B3846EE1
:1001100081BB8B98939A929A8AB3807F8ABB8BB368
:100120008F608BBB0E94AC0380E090E00E94A40330
:1001300080938000789411E055E0B52E43E0F42ED2
:1001400032E0E32E24E0D22E97E0C92E06E088E0CC
:10015000A82E0E942E03282F809182009091830068
:1001600001969093830080938200CB9BD7C12F3E52
:1001700009F4F4C0203F50F42F3B09F46BC12F3D2C
:1001800009F42AC12F3709F0C4C1A1C12B3F09F4DA
:1001900069C02C3F20F4273F09F0BBC1A1C02D3F0F
:1001A00019F12E3F09F0B5C1809181009091800036
:1001B000891711F410928400823008F4AAC1C09A01
:1001C000C198909395001093960010939700109308
:1001D000980089B382708093990089B3847080936A
:1001E0009A001093840091C18091810090918000C9
:1001F000891711F4109284008330C0F0C09AC1981E
:10020000909395001093960010939700E0929800B9
:1002100089B382708093990089B3847080939A0027
:10022000E092840085E990E00E94FE0380918100C5
:10023000823008F06EC1C19AC0988091800080938E
:1002400095001093960010939700E092980089B360
:1002500082708093990089B3847080939A00E092B1
:10026000840053C18091810090918000891711F41E
:10027000109284008430C0F0C09AC1989093950089
:100280001093960010939700F092980089B38270B3
:100290008093990089B3847080939A00F0928400CF
:1002A00085E990E00E94FE0380918100833008F090
:1002B00030C1C19AC09880918000809395001093BE
:1002C000960010939700F092980089B38270809303
:1002D000990089B3847080939A00F092840015C1CC
:1002E0008091810090918000891711F41092840010
:1002F0008530C0F0C09AC1989093950010939600F5
:1003000010939700D092980089B3827080939900DF
:1003100089B3847080939A00D092840085E990E03C
:100320000E94FE0380918100843008F0F2C0C19ADF
:10033000C098809180008093950010939600109350
:100340009700D092980089B382708093990089B306
:10035000847080939A00D0928400D7C080918100ED
:1003600090918000891711F4109284008630C0F0BB
:10037000C09AC1989093950010939600109397009F
:10038000B092980089B382708093990089B3847089
:1003900080939A00B092840085E990E00E94FE0369
:1003A00080918100823008F0B4C0C19AC0988091D9
:1003B0008000809395001093960010939700B09260
:1003C000980089B382708093990089B38470809378
:1003D0009A00B092840099C0809181009091800031
:1003E000891711F4109284008730C0F0C09AC19828
:1003F00090939500109396001093970000939800A7
:1004000089B382708093990089B3847080939A0035
:100410000093840085E990E00E94FE0380918100B2
:10042000863008F076C0C19AC09880918000809391
:10043000950010939600109397000093980089B34D
:1004400082708093990089B3847080939A0000939E
:1004500084005BC08091810090918000891711F425
:10046000109284008830C0F0C09AC1989093950093
:100470001093960010939700C092980089B38270F1
:100480008093990089B3847080939A00C09284000D
:1004900085E990E00E94FE03809181008730C8F5D5
:1004A000C19AC09880918000809395001093960027
:1004B00010939700C092980089B38270809399003E
:1004C00089B3847080939A00C09284001EC080918A
:1004D000810090918000891711F410928400883077
:1004E000C0F4C19AC0989093950010939600109311
:1004F0009700A092980089B382708093990089B385
:10050000847080939A00A092840085E990E00E9414
:10051000FE0380918100609184003EC02F3E21F156
:10052000203F38F42F3B41F12F3D11F12F3769F572
:1005300027C02B3F89F02C3F18F4273F31F510C01E
:100540002D3F31F02E3F09F580E090E061E01BC0C7
:1005500080E090E062E017C080E090E063E013C0CC
:1005600080E090E064E00FC080E090E065E00BC0C8
:1005700080E090E066E007C080E090E067E003C0C4
:1005800080E090E068E00E949B0380E090E00E94A1
:10059000A4038093800060E00E944A03C8992DC0A4
:1005A00080E090E00E94A4038093810080939500F6
:1005B00010929600109397008093980099B39270D0
:1005C0009093990099B3947090939A0090918400BD
:1005D000891721F41092840010929B008091820070
:1005E0009091830080529E4440F085E990E00E9403
:1005F000FE03109283001092820080917E00882377
:1006000009F4A7CD80918600882339F48091880071
:100610008093810080919B0004C0813021F48091FF
:1006200088008093840010927E0093CD90E00000BB
:10063000A998000087FF03C00000AE9A02C0000026
:10064000AE98A99A00009F5F983011F0880FEFCF05
:100650000895A89800000000A89A089596980000B0
:1006600000000000969A000000000000979890E0BB
:1006700080E0880F95980000000083998160959A2A
:100680000000000095989F5F983099F700000000E7
:10069000979A08951F93162F0000E4E6F0E0E80F04
:1006A000F11D80810E941603E4E7F0E0E10FF11DE7
:1006B00080810E9416030E94290300001F91089563
:1006C000C49A86E990E00E947F03C49886E490E093
:1006D0000E947F03089520E030E00DC0000000007C
:1006E000000000000000000000000000000000000A
:1006F00000002F5F3F4F2817390780F3089540E02F
:1007000050E015C020E030E00000000000000000D4
:1007100000000000000000000000000000002F5F4B
:100720003F4F63E0283E360779F74F5F5F4F48172A
:10073000590740F30895E199FECF9FBB8EBB6DBB77
:10074000E29A0000E19A0895E199FECF9FBB8EBB2B
:100750000000E09A8DB308951AB81BB886E080BDFA
:100760008DE489B910BC88E98AB908955D9BFECFF4
:100770008CB908955F9BFECF8CB10895DC018CB1DC
:100780008E3FC9F55F9BFECF8CB18E3FD9F3883683
:1007900091F55F9BFECF2CB12C935F9BFECF9CB15C
:1007A00011969C9311975F9BFECF8CB112968C9300
:1007B0001297290F2859280F30E0482F50E009C020
:1007C0005F9BFECF8CB1FD01E30FF11D8383280FEA
:1007D0003F5F832F90E08417950794F35F9BFECFD4
:1007E0008CB1281741F45F9BFECF8CB190E086312D
:1007F00019F491E001C090E0892F0895CF93DF9321
:10080000EC01929881E090E00E947F035D9BFECF17
:100810008EEF8CB95D9BFECF8EEF8CB95D9BFECFCA
:1008200088E68CB988815D9BFECF8CB929815D9B60
:10083000FECF2CB99A815D9BFECF9CB98859820F5F
:10084000890F20E0492F50E008C0EC0FFD1F938175
:100850005D9BFECF9CB9890F2F5FE22FF0E0E4177C
:10086000F5079CF35D9BFECF8CB95D9BFECF86E1C7
:100870008CB985E090E00E947F03929ADF91CF913E
:060880000895F894FFCF7B
:10088600AA00010F3F065B4F666D7D077F6F777C81
:0E089600395E797100804020100804020100D4
:00000001FF
