:100000000C9446000C9463000C9463000C94630001
:100010000C94DC000C9463000C9463000C9463005B
:100020000C9463000C9463000C9463000C946300C4
:100030000C9463000C9463000C9463000C946300B4
:100040000C9491000C9463000C9418010C946300C0
:100050000C9463000C9463000C9463000C94630094
:100060000C9463000C9463000C9463000C94630084
:100070000C9463000C9463000C9463000C94630074
:100080000C9463000C9463000C94630011241FBE55
:10009000CFEFD0E1DEBFCDBF11E0A0E0B1E0E8E8F6
:1000A000FAE002C005900D92A832B107D9F711E02D
:1000B000A8E2B1E001C01D92A237B107E1F70E94AA
:1000C0004B010C9442050C9400001ABA8FEF8BBBC5
:1000D00014BA85BB87BB82B18F7082B983B1806F40
:1000E00083B982B18C7F82B983B18C7F83B9129A34
:1000F0001A9A13981B9A81B3806F81BB889A899A48
:100100008A9A8B981B9AE4E6F0E080818360808372
:100110008081877F8083E5E6F0E08081886080834E
:1001200008951F920F920FB60F9211242F938F9361
:100130009F93AF93BF9384E682BF80916E019091AD
:100140006F01A0917001B09171010196A11DB11DC7
:1001500080936E0190936F01A0937001B093710131
:1001600080912E0190912F01895E9D4F20F0109279
:100170002F0110922E0180912E0190912F01019656
:1001800090932F0180932E01069760F010922F011B
:1001900010922E0110923001109231011092320112
:1001A00010923301BF91AF919F918F912F910F903A
:1001B0000FBE0F901F9018951F920F920FB60F92BF
:1001C00011248F939F93AF93BF938091630083FF1C
:1001D00009C0809165008E7F8093650080916500E5
:1001E000826008C0809165008D7F8093650080915A
:1001F00065008160809365008091300190913101AC
:10020000A0913201B09133010196A11DB11D8093DF
:10021000300190933101A0933201B0933301BF912B
:10022000AF919F918F910F900FBE0F901F901895D7
:100230001F920F920FB60F9211242F933F934F935B
:100240005F936F937F938F939F93AF93BF93EF933E
:10025000FF9382E491E00E941C04882319F081E05E
:100260008093280180914301882321F480914501E6
:1002700080932901FF91EF91BF91AF919F918F9151
:100280007F916F915F914F913F912F910F900FBE92
:100290000F901F9018950E9465000E9406040E940E
:1002A000FA0381E087BF87E083BF8AE882BF88E0E6
:1002B00089BF80EC80936A0010922F0110922E016A
:1002C0002FE088E190E00FB6F894A89581BD0FBEAD
:1002D00021BD0E941F03A89580912501813311F44F
:1002E0000E94C20280912501823301F5999916C0BE
:1002F000989914C080912601823049F08F3F71F0A7
:10030000813051F488B3806A88BBC6980AC088B32C
:10031000806688BBC79805C0000003C0C798C69810
:10032000C5988091290190E00E94370280912501B3
:10033000833379F48091290190E00E943702CE99AD
:1003400002C00E94FE0480912901882311F40E94BA
:10035000F80480912801882309F4BBCF80914301E0
:10036000882321F48091450180932901109228016E
:10037000B0CF959890E000009798000087FF03C0E9
:10038000949A000002C094980000979A00009F5F22
:10039000983011F0880FEFCF089596980000000074
:1003A000969A08950F931F938091000103E011E046
:1003B000F801E80FF11D80810E94B9010E94CD0172
:1003C00082B3876082BB929885E090E00E9495029C
:1003D000929A80910101F801E80FF11D80810E943D
:1003E000B9010E94CD0182B3876082BB919885E0FC
:1003F00090E00E949502919A80910201080F111DD0
:10040000F80180810E94B9010E94CD0182B387600A
:1004100082BB909885E090E00E949502909A1F918F
:100420000F910895282F843638F081E70E94B90192
:1004300082B3887F82BB08958A3058F08FE0809322
:100440000201822F6AE00E94220580930101822F1F
:1004500007C08FE08093020110920101822F6AE0B1
:100460000E942205909300010E94D20108959C01F0
:1004700083E0283E380738F081E70E94B90182B353
:10048000887F82BB08952436310568F0C90164E68F
:1004900070E00E942E0560930201C90164E670E0DD
:1004A0000E942E0507C02A30310558F080E1809364
:1004B0000201C9016AE070E00E942E05609301010B
:1004C00005C080E18093020180930101C9016AE0C7
:1004D00070E00E942E05809300010E94D2010895D1
:1004E000000000000000000000000000000000000C
:1004F000000000000000000008950F931F93CF93A9
:10050000DF938C01C0E0D0E003C00E94700221960E
:10051000C017D107D0F3DF91CF911F910F910895AC
:1005200088EE93E00E947D02089540E050E015C0FF
:1005300020E030E0000000000000000000000000AB
:10054000000000000000000000002F5F3F4F63E04C
:10055000283E360779F74F5F5F4F4817590740F33A
:100560000895E199FECF9FBB8EBB6DBBE29A000060
:10057000E19A0895E199FECF9FBB8EBB0000E09AFF
:100580008DB3089590912401913021F0923009F0BB
:1005900055C012C080912A018D3110F090932A012C
:1005A00080912A0190E00E94BA0280932B018091F1
:1005B0002A010E941202089580912A01853071F16A
:1005C000863060F4823079F1833018F4813089F517
:1005D00011C08330B1F0843061F51BC08C3019F14B
:1005E0008D3018F48B3029F51EC08D30E1F08E303F
:1005F00001F519C080912B018930D8F090932B011F
:1006000018C080912B018930A0F081E080932B01EC
:1006100010C080912B01893C60F009C080912B01B2
:10062000833038F004C080912B01823010F010929A
:100630002B0180912B0190E00E94370208951092C7
:1006400067011092680141B12091690180916201B6
:10065000382F3427922F90959323982390936301FA
:10066000582F50955323522350936501822F842B8A
:10067000892B852B8095807F809366012093620172
:10068000409369010C99A3C00B998BC081E38093BF
:10069000250155FF16C080912401823069F08F3FFB
:1006A00019F0813069F406C081E0809324018093C1
:1006B0002A0107C08FEF01C081E08093240101C0AF
:1006C000000057FF17C080912401813019F082305B
:1006D00081F404C082E0809324010CC081E0809307
:1006E000240180912A0190E060912B010E94B102C7
:1006F00001C000008091650186FF11C08091240136
:10070000813031F480912A018F5F80932A0107C0E4
:10071000823029F480912B018F5F80932B0180918F
:10072000630186FF14C080916E0190916F01A091CA
:100730007001B09171018C599F4FAF4FBF4F8093A3
:100740006A0190936B01A0936C01B0936D0180914D
:10075000660186FF26C020916E0130916F014091A5
:1007600070015091710180916A0190916B01A0918B
:100770006C01B0916D0182179307A407B50788F447
:1007800080912401813031F480912A018F5F809320
:100790002A0107C0823029F480912B018F5F80935A
:1007A0002B010B9B14C082E38093250100008FEF87
:1007B000809326019091660196FF09C095FF16C0AF
:1007C00081E08093260112C082E0809326010C9B79
:1007D00010C00B9B04C083E38093250100000B999C
:1007E00008C084E3809325010000089597FFEFCFB0
:1007F000EBCF08951AB81BB886E0809395008DE47E
:1008000089B91092900088E98AB90895F8941CBEBD
:1008100010926D0015BE10926A001ABE19BE17BE66
:1008200010927D00789408955D9BFECF8CB9089559
:100830005F9BFECF8CB10895DC018CB18E3FC9F572
:100840005F9BFECF8CB18E3FD9F3883691F55F9BCD
:10085000FECF2CB12C935F9BFECF9CB111969C9345
:1008600011975F9BFECF8CB112968C931297290F34
:100870002859280F30E0482F50E009C05F9BFECF79
:100880008CB1FD01E30FF11D8383280F3F5F832FA0
:1008900090E08417950794F35F9BFECF8CB12817E7
:1008A00041F45F9BFECF8CB190E0863119F491E06A
:1008B00001C090E0892F0895CF93DF93EC011A983F
:1008C00081E090E00E9495025D9BFECF8EEF8CB997
:1008D0005D9BFECF8EEF8CB95D9BFECF88E68CB919
:1008E00088815D9BFECF8CB929815D9BFECF2CB9A1
:1008F0009A815D9BFECF9CB98859820F890F20E0B9
:10090000492F50E008C0EC0FFD1F93815D9BFECF87
:100910009CB9890F2F5FE22FF0E0E417F5079CF3F5
:100920005D9BFECF8CB95D9BFECF86E18CB985E0E7
:1009300090E00E9495021A9ADF91CF9108958091DC
:100940002E0190912F01009789F4809130019091B0
:100950003101A0913201B091330180933A0190931B
:100960003B01A0933C01B0933D0137C00297A9F52C
:100970006091300170913101809132019091330189
:1009800060933E0170933F01809340019093410139
:1009900020913A0130913B0140913C0150913D0141
:1009A000621B730B840B950B6093360170933701B8
:1009B000809338019093390128EB3BE040E050E010
:1009C0000E9403052AE096958795779567952A9565
:1009D000D1F7709335016093340180913401909187
:1009E00035010895000088B3806A88BBC6980895D1
:1009F000000088B3806688BBC79808950000C79838
:100A0000C698C5980895629FD001739FF001829F98
:100A1000E00DF11D649FE00DF11D929FF00D839F8D
:100A2000F00D749FF00D659FF00D9927729FB00D2A
:100A3000E11DF91F639FB00DE11DF91FBD01CF013D
:100A400011240895991B79E004C0991F961708F0A6
:100A5000961B881F7A95C9F780950895AA1BBB1B22
:100A600051E107C0AA1FBB1FA617B70710F0A61BAE
:100A7000B70B881F991F5A95A9F780959095BC01CF
:080A8000CD010895F894FFCFA9
:100A880010101028EE32A2E4A121EA20A060253936
:100A9800263171FF3F065B4F666D7D077F6F777C60
:080AA800395E7971FFFFFF00C8
:00000001FF
